:1070000061C00000A0C0000084C0000082C0000079
:1070100080C000007EC000007CC000007AC000007C
:1070200078C0000076C0000074C0000072C000008C
:1070300070C000006EC000006CC000006AC000009C
:1070400068C0000066C0000064C0000062C00000AC
:1070500060C00000EC2DFD2DB7B6B0FCFDCF27BF02
:10706000E895B7B6B0FCFDCF21E1B7B6B6FCF4CFDA
:107070000895090212000101008032090400000095
:107080000000000012011001FF000008C016DC051E
:107090000201010200010E0355005300420061008D
:1070A000730070001C037700770077002E006600E5
:1070B00069007300630068006C002E0064006500C6
:1070C0000403090411241FBECFE5D8E0DEBFCDBF05
:1070D00024B7D8E0CEE539913833399109F03FEF44
:1070E00030939E0020939D0010E0A0E6B0E0ECE518
:1070F000F8E702C005900D92A636B107D9F720E057
:10710000A6E6B0E001C01D92AD39B207E1F772D139
:10711000A3C376CFA82FB92F80E090E041E050EADA
:10712000609530E009C02D9182279795879510F0E2
:1071300084279527305EC8F36F5FA8F30895EADFD0
:107140008D939D930895CF93CFB7CF93DF93C3953E
:10715000839BE9F7839B0BC0839B09C0839B07C07C
:10716000839B05C0839B03C0839B01C089C06F9331
:10717000C0918000DD27C957DF4F2F9365E5839BC2
:1071800003C02F916F91E6CF0F931F934F9320E091
:1071900040E15F9300B30C7003FB27F93F9350E08D
:1071A0003BE039C01C7040642F77012F5F5F1EC029
:1071B000406810B31C702F7752501FC0406400B35A
:1071C0002F770C70D1F15F5F00C023C0406210B315
:1071D0002F771C7091F15F5F00C025C00C701027E5
:1071E000515012F45D5F0000115027952C3F10B3F1
:1071F000C8F61C700127015027952C3FC8F642277E
:10720000499300B30C7010274F73115027952C3FF2
:10721000A8F64695469510B31C7079F001270150E9
:1072200027952C3F98F66B5A60F3315000B3B0F6B7
:1072300000C010E41ABF002717C03B503195C31B94
:10724000D04010E41ABF0881033CF9F00B34E9F098
:1072500020917E001981110F1213EDCF093651F1E3
:107260000D3211F0013E39F7009385003F915F9197
:107270004F911F910F912F916F91CAB7C6FD67CFA4
:10728000DF91CF91CFBFCF91189520918500222318
:1072900069F310918300112339F534303AF13093BA
:1072A000830020937F00109180003BE0311B3093DE
:1072B00080001CC0009183000130B4F40AE53091D5
:1072C000610034FD14C000936100C3E7D0E013C037
:1072D000052710E000C0000002BB1AC0052710E01F
:1072E000221F1DC010E021C04AE502C032ED432F2D
:1072F000C4E1D0E032E011B31C60939A02B311BB39
:107300005CE020E865E320FF052702BB2795179581
:107310001C3FF0F66695B8F7B1F720FF052702BBD2
:10732000279517951C3FD0F62795179517FF05272A
:1073300000001C3F02BBB0F629913A9519F7037F74
:1073400010918400110FC651D04002BB11F0109370
:107350007E0010E41ABF086011B3137F402F437FF3
:1073600054E05A95F1F702BB11BB42BB7FCFFC0141
:107370003381932F4481842F2281203339F4437049
:10738000E42FF0E0EE59FF4F80810895283529F46D
:1073900031110EC0E1E0F0E006C0203571F431118A
:1073A00027C0E0E0F0E089E08093570084910895E1
:1073B0003830F1F4E3E0F0E0F6CF203221F4FC01C4
:1073C000EE0FFF1F06C0283231F4FC01EE0FFF1F45
:1073D000319684910895203A09F429C2203C19F489
:1073E00065812DD205C02F3F19F481EF8093710084
:1073F00080E0089511BA80E182BB81E08BBF82E01A
:107400008BBFE0E0F1E7A89531978040E1F78091EC
:107410009D00877F21F480919E00882379F0849BD2
:107420000DC0F8948B9A12BA1BBE15BE81E08BBFBB
:107430001BBEE0916A00F0916B0009958EEF80937E
:10744000710014BE88E10FB6F89481BD11BC0FBE67
:1074500085B7826085BF8BB780648BBF8B9A8CE0C9
:10746000E0E0F5E3A89531978040E1F78B987894B8
:1074700080918300835087FD46C190918000CCE0CD
:10748000D0E0C91BD109C957DF4F90917F009D32D1
:1074900009F0B9C0883009F034C183EC80937300DF
:1074A0008AE580936100109272004881842F807673
:1074B00039818823B9F186E690E090938200809329
:1074C0008100333031F4CE0152DF8093690024E033
:1074D00090C0353019F13A3009F18CEF830F8630C6
:1074E00098F48A819B819093700080936F0039306B
:1074F000B9F08E8180936E008D81827080936D00D3
:1075000030936C002FEF6FC080917100323011F416
:107510008E7F01C081608093710002C021E069C04C
:1075200020E067C08A8110927C00311106C0109261
:107530007D008CE790E022E050C0353019F4809354
:1075400084003DC03630A9F59B81913019F484E860
:1075500090E704C0923041F482E790E79093820074
:107560008093810022E121C09330F1F4811108C0A1
:1075700080EC90E7909382008093810024E015C016
:10758000813041F484EA90E79093820080938100F7
:107590002CE10BC0823041F486E990E790938200A1
:1075A000809381002EE001C020E080E4809372008F
:1075B00018C0383079F0393031F4809386008CE788
:1075C00090E020E00AC021E03A3009F020E08CE7AA
:1075D00090E003C086E890E021E0909382008093E1
:1075E00081002F3F31F447FD2E8180E880937200A7
:1075F00007C08F81811104C08E81821708F4282F63
:10760000209360007EC09091720097FF7AC09091A5
:107610006E00E82E981708F4E92E9E1990936E00DC
:10762000DD24D3949111D12CF12CFE1408F066C006
:1076300020916C0080916F0090917000273078F05D
:107640008E010F5F1F4F68819C012F5F3F4F30936A
:10765000700020936F00F3D0F394E801E6CF81151A
:10766000904708F04CC0F394F394F894E0916F00C5
:10767000F09170008991999121E00C0120935700BD
:10768000E8951124789480916F0090917000029693
:107690009093700080936F008F779927892B59F012
:1076A000DD2009F4C2CFFE1408F4BFCF80916D0035
:1076B000882309F4BACFF894E0916F00F09170003C
:1076C000329783E080935700E895789407B600FCE2
:1076D000FDCFF894E0916F00F0917000329785E053
:1076E00080935700E895789407B600FCFDCFF89496
:1076F00081E180935700E895789497CFD11010924C
:107700006000109283008091610084FF6CC08091C2
:1077100060008F3F09F467C0F82E893010F028E030
:10772000F22E8F19809360008091730098E889276A
:1077300080937300FF2009F449C08091720087FF95
:1077400027C080916E008F1508F4F82E8F19809352
:107750006E00E0906C00C4E7D0E084E790E0FC2F7E
:10776000F81BFF1598F500916F001091700086E0EE
:107770008E1518F4C8015BD002C0F801849188838B
:1077800021960F5F1F4F1093700000936F00E5CF9D
:10779000E0918100F091820086FF0BC084E790E0C9
:1077A000DC0124912D9331962F2D280F2A13F9CF28
:1077B00009C084E790E0DC0121912D932F2D280F43
:1077C0002A13FACFF0938200E09381006F2D84E7B3
:1077D00090E0B5DC84E08F0D8C3019F09FEF909332
:1077E00060008093610084E190B39C7031F481501B
:1077F000D9F71092840010927E0080917100803140
:1078000030F0849B0FC080917100805109C0849931
:1078100009C080917100823028F0809171008250FF
:107820008093710080917100811122CEFACDE1998F
:10783000FECF9FBB8EBBE09A99278DB30895262F6C
:10784000E199FECF9FBB8EBB2DBB0FB6F894E29A99
:0C785000E19A0FBE01960895F894FFCF56
:06785C00FF5A1E95020018
:040000030000700089
:00000001FF
