:100000000C949E010C94E2010C94FD010C94E2010D
:100010000C94E2010C94E2010C94E2010C94E201D4
:100020000C94E2010C94E2010C9442160C94E2014F
:100030000C94E2010C94E2010C94E2010C94E201B4
:100040000C94E2010C94E2010C94E2010C94E201A4
:100050000C94E201490C490C7B0C7B0CC80CFC0D88
:10006000FC0DFC0DE60C7B0D8C0D8C0DEC0DFC0DD0
:10007000FC0DF50D980E980EAA0EAA0EA10EAA0E52
:10008000AA0EAA0E980E980EA60EAA0EAA0EA60EDC
:10009000290000003A003B003C003D003E003F00CC
:1000A000400041000000420043004400450046007B
:1000B0004700480035001E001F00200021002200DC
:1000C00023002400250026002700E3002E002A003C
:1000D000000049004A004B002B0014001A000800E1
:1000E000150017001C0018000C00120013002F0050
:1000F0003000310000004C004D004E00390004007B
:100100001600070009000A000B000D000E000F008A
:100110003300340000002800000000000000000050
:10012000E1001D001B000600190005001100100071
:1001300036003700380000000000E5000000000035
:1001400052000000E000E300E200000000000000B8
:100150002C0000000000E600E70000000151000054
:10016000E400500051004F000100000068006900E9
:100170006A006B006C006D006E006F000000700084
:100180007100720073000100BD00BE00010001009B
:100190000100010001000100010001000100010057
:1001A000010001000100010000000100B900B200DF
:1001B0000100010001000100005C010001000100DC
:1001C0000100010001000100010001000000AC007D
:1001D000AE00AB00010001000100010001000100C0
:1001E0000100010001000100010001000000010008
:1001F00000000000000000000100010001000100FB
:10020000010001000100A800010001000100000040
:100210000000E50000000000A9000000010001004E
:1002200001000000000000000100000000000100CB
:1002300001000000010000000100A800AA00010068
:1002400009023B00020100A0FA09040000010301B9
:100250000100092101010001224000070581030876
:10026000000109040100010300000009210101004F
:10027000012232000705830308000112011001006A
:10028000000008626B698701000102000114034D40
:100290000059005300540045005200490055004DDC
:1002A000000000200363006F0073006500790066A2
:1002B0000061006E006E00690074007500740074C7
:1002C00000690000000403090405010980A10185FB
:1002D0000319012AB700150126B700950175108191
:1002E00000C0050C0901A101850419012AA002150D
:1002F0000126A002950175108100C005010906A123
:1003000001050719E029E715002501950875018108
:10031000029501750881030507190029FF150026BC
:10032000FF00950675088100050819012905950546
:1003300075019102950175039103C00011241FBE40
:10034000CFE5D8E0DEBFCDBF04B603FE24C0809168
:10035000BB029091BC02A091BD02B091BE02873059
:10036000904BA740B04BB9F41092BB021092BC0264
:100370001092BD021092BE0214BE84B7877F84BF64
:100380000FB6F894A89581B5886181BD11BC0FBEE8
:10039000E0E0F8E3099510E0A0E6B0E0EEEDF3E36D
:1003A00002C005900D92A83EB107D9F722E0A8EE51
:1003B000B0E001C01D92AB3BB207E1F70E94B3165B
:1003C0000C94ED190C940000A82FB92F80E090E058
:1003D00041E050EA609530E009C02D918227979561
:1003E000879510F084279527305EC8F36F5FA8F3D8
:1003F0000895EADF8D939D930895CF93CFB7CF9360
:10040000DF93C395839BE9F7839B10C0839B0EC04A
:10041000839B0CC0839B0AC0839B08C0839B06C040
:10042000C0919202C395C09392028EC06F93C09107
:100430009102DD27C756DD4F2F9365E5839B03C0EF
:100440002F916F91E1CF0F931F934F9320E040E1E5
:100450005F9300B30C7003FB27F93F9350E03BE040
:1004600039C01C7040642F77012F5F5F1EC0406849
:1004700010B31C702F7752501FC0406400B32F7709
:100480000C70D1F15F5F00C023C0406210B32F77C2
:100490001C7091F15F5F00C025C00C701027515097
:1004A00012F45D5F0000115027952C3F10B3C8F681
:1004B0001C700127015027952C3FC8F6422749930D
:1004C00000B30C7010274F73115027952C3FA8F6DE
:1004D0004695469510B31C7079F001270150279579
:1004E0002C3F98F66B5A60F3315000B3B0F600C061
:1004F00010E81ABF00271CC03B503195C31BD040E9
:1005000010E81ABF0881033C21F10B3411F120914E
:100510008E021981110F1213EDCF4A81441F093643
:1005200079F10D3211F0013E29F74F7009F0042FD7
:10053000009397023F915F914F911F910F912F91DF
:100540006F91CAB7C7FD5DCFDF91CF91CFBFCF917C
:10055000189520919702222369F310919502112397
:1005600009F049C034300AF448C030939502209312
:100570009002109191023BE0311B309391023DC0FB
:10058000009195020130BCF50AE54F7049F43091B5
:100590006D0034FD33C000936D00CBE6D2E032C075
:1005A000433059F0443091F03091760234FD26C04A
:1005B00000937602C7E7D2E025C03091AF0234FD48
:1005C0001DC00093AF02C0EBD2E01CC0309182028C
:1005D00034FD14C000938202C3E8D2E013C00527A3
:1005E00010E000C0000002BB1AC0052710E0221F67
:1005F0001DC010E021C04AE502C032ED432FC4E126
:10060000D0E032E011B31C60939A02B311BB5CE0FE
:1006100020E865E320FF052702BB279517951C3FBF
:10062000F0F66695B8F7B1F720FF052702BB2795CE
:1006300017951C3FD0F62795179517FF0527000043
:100640001C3F02BBB0F629913A9519F7037F109130
:100650009602110FC651D04002BB11F010938E02CA
:1006600010E81ABF086011B3137F402F437F54E096
:100670005A95F1F702BB11BB42BB5CCF81E00895F4
:1006800081E008950C94400308950C9444031F9353
:10069000CF93DF9300D000D01F92CDB7DEB7498350
:1006A0005A836B8330910E0189819A81311114C074
:1006B000662359F0222349F00E94D113182F682F86
:1006C00089819A810E947A1303C00E94A513182F72
:1006D00069817A81812F04C00E94D11369817A8156
:1006E0000F900F900F900F900F90DF91CF911F916F
:1006F0000C94FB03FC01262F4081518162817381A0
:1007000084810C944703CF93DF93EC0160E00E9457
:100710007A03BE01DF91CF910C9445030E947D16B0
:100720000E940915811102C00E94B0150C94170691
:100730000C94130608950E94860E0E949A032FEFD0
:1007400084E39CE0215080409040E1F700C000002D
:100750000C9468160F931F93CF93DF93EC0161E025
:100760000E947A038C01BE010E944203882349F152
:10077000BE01C8010E94C407882319F1BE01C80147
:100780000E9416088823E9F0BE01C8010E944109B1
:100790008823B9F08A81882369F001158CE5180750
:1007A00031F00F3D1C4531F40E94B0150AC00E9483
:1007B0009B0307C0CE01DF91CF911F910F910C9445
:1007C0003E0380E0DF91CF911F910F91089508952E
:1007D0000C94E70381E008950C94EA03CF93C82FAB
:1007E0000E94E8038C2F0E94EC03CF91089580E0D3
:1007F00090E0089508952CE6829FC0011124FC0129
:1008000022E1729FE00DF11D1124E60FF11DEE0FA4
:10081000FF1FE057FF4F859194910895880F991F0E
:10082000FC01E05CFD4F859194910895CF93DF9397
:100830000E94FB030E942805EC018115904508F0F9
:1008400043C0C11580E4D80708F0CBC0C03ED10535
:1008500028F5C03CD10508F0B3C0C83AD10578F4FA
:10086000C53AD10508F0A4C0C130D10509F4ECC0E7
:1008700008F4E8C0C430D10508F0E6C0E3C0CF3BBF
:10088000D10508F0DFC0C85AD0E0CC0FDD1FC25937
:10089000DF4F0990D881C02DD464D6C0C11590E235
:1008A000D90750F4C11521E0D20708F0CDC0C83EE9
:1008B000D10508F4C9C0C6C0C11580E3D80708F047
:1008C00086C0CE019F707FC0C11595E5D90708F09D
:1008D00043C0C11524E5D20708F09AC0C11582E5CE
:1008E000D80708F5C11591E5D90708F07DC0CE01FC
:1008F00074E0969587957A95E1F783709C2F9370B5
:1009000021E030E002C0220F331F9A95E2F73C68E5
:10091000382BCF70C695C69580E2C89FE0011124A0
:10092000C22BD32B91C09E01237033278C2F869529
:100930008695C115D34508F05CC0C1E0D0E002C087
:10094000CC0FDD1F2A95E2F720E2829FC00111241F
:10095000C82BD92BDC6878C0C11529E5D207A0F4D3
:10096000C11588E5D80708F058C0C11596E5D90724
:1009700008F068C08C2F0E94BC058F71C82FD0E092
:10098000DC2FCC27D06260C0C1152AE5D20708F45D
:1009900049C0CE0190568115904208F053C08D2F6A
:1009A0008F710E94BC05DD27D0628F71D82B4CC09F
:1009B000C55AD0E0C456DF4FC881D0E0D06444C0EF
:1009C000CE01805C91090E940E04EC013DC0CE0175
:1009D0009927D3FF03C0EC01D86C36C0EC01D06C72
:1009E00033C0DF70D06A30C0DC2FCC27C16FD06A33
:1009F0002BC0C1E0D0E002C0CC0FDD1F2A95E2F78A
:100A000020E2829FC0011124C82BD92BDA681CC0B8
:100A1000DC2FCC27C46FD06A17C0DC2FCC27C06F67
:100A2000D06A12C08C2F8F700E94BC0594E0D695BE
:100A3000C7959A95E1F7CF70D0E0DC2FCC27D0692D
:100A4000C82B02C0C0E0D0E0CE01DF91CF91089565
:100A50008238910569F1B0F48133910509F46DC0D4
:100A600048F48932910509F463C08A32910509F48A
:100A700069C008958533910509F455C089339105FE
:100A8000B9F00895833E910569F138F4803E9105EF
:100A9000B1F0823E910509F10895863E9105A9F1D4
:100AA000873E9105B9F1843E910509F064C023C0E9
:100AB0002091690220FD4FC021FD4DC00895809115
:100AC000690280FD44C080916A0280FF44C0809129
:100AD000690284FD42C083EE4DC08091690282FFAD
:100AE00038C0F5CF8091690282FD33C080916A02DF
:100AF00080FD31C0ECCF80916A0281FF32C08091CD
:100B0000690284FD2AC087EE35C08091690283FFA7
:100B100026C0F5CF8091690283FD21C080916A02D1
:100B200081FD1FC0ECCF8091690285FD1CC01DC0F6
:100B30008091690285FD19C016C08091690286FD09
:100B400016C017C08091690286FD13C010C089E3EA
:100B500011C082EE0FC080EE0DC080E00BC086EEAB
:100B600009C084EE07C089E205C085E303C08AE2BC
:100B700001C081E390E008959091690292FF0DC059
:100B8000282F2871283019F4877F846006C0282F09
:100B90002471243011F48B7F886093FF0DC0282FBF
:100BA0002871283119F4877E846106C0282F2471AA
:100BB000243111F48B7E886120916A0220FF0DC0E0
:100BC000382F3871383019F4877F816006C0382F8C
:100BD0003171313011F48E7F886021FF0DC0282FD4
:100BE0002871283119F4877E816106C0282F217170
:100BF000213111F48E7E886194FD877E089524E072
:100C0000829FC0011124FC01E35BFD4F6081718173
:100C1000828193810895089580EA8A95F1F7089575
:100C200008950C9410060C9411060C9410060C9464
:100C30001506F894E82FE295EF70F0E031A9282F1F
:100C40002F7081E090E001C0880F2A95EAF7982F75
:100C50009095932391AB92A9892B82AB78940895B8
:100C6000CF93DF93C1EBD0E089910E94190680E019
:100C7000C73BD807C9F7CFE9D0E089910E94190690
:100C800080E0C13BD807C9F7E5E3F2E0ADE4B2E0AC
:100C90008DE492E011921192119211921D921D9287
:100CA0001D921D928E179F07A9F786E00E941407D8
:100CB000DF91CF910C948E032F923F924F925F92CF
:100CC0006F927F928F929F92AF92BF92CF92DF925C
:100CD000EF92FF920F931F93CF93DF9300D01F9259
:100CE000CDB7DEB781EBE82E80E0F82E05E312E009
:100CF0001B830A83198222242394312C412C512CEA
:100D0000320143946701F7018081F894E82FE2955E
:100D1000EF70F0E021A98F70810102C0000F111F58
:100D20008A95E2F7C801922F982B91AB92A98095F2
:100D3000892382AB78940E940C06AFE9B0E080E092
:100D400090E0812C912C54015D91E52FE295EF709C
:100D5000F0E020A930E05F7002C0359527955A95E4
:100D6000E2F720FD0DC093018201082E04C0000FA0
:100D7000111F221F331F0A94D2F7B901A80103C023
:100D800040E050E0BA01842A952AA62AB72A0196A3
:100D900082319105C9F61FEFE11AF10AF60180814F
:100DA0000E941906EA81FB8180819181A281B38131
:100DB00088169906AA06BB0631F080829182A2822B
:100DC000B38281E001C080E00981082B09830A8198
:100DD0001B810C5F1F4F1B830A832DE432E0201719
:100DE000310709F08FCF298146E06DE472E085E399
:100DF00092E00E9415070E94980389810F900F903E
:100E00000F90DF91CF911F910F91FF90EF90DF90A6
:100E1000CF90BF90AF909F908F907F906F905F909A
:100E20004F903F902F9008950895FF920F931F9336
:100E3000CF93DF93F82ED92F8B01C42F222349F0B3
:100E400081E08093EA000E9427169093E900809346
:100E5000E8008091EA008823F1F08091E800909109
:100E6000E9000E9433160697B0F0EF2DFD2FD80150
:100E700080E090E04C2F50E08417950754F40191E6
:100E80001191219131910D931D932D933D930196D5
:100E9000F3CF1092EA00DF91CF911F910F91FF9055
:100EA00008950F931F93CF93DF93C42FD22FFC018C
:100EB00082818823C9F04093ED000E942716909309
:100EC000EC008093EB0080E28C0F883008F057C074
:100ED000C77081E001C0880FCA95EAF7DF91CF9112
:100EE0001F910F910C94050C8091ED00481330C0B8
:100EF0008091EB009091EC000E943316883C9105A4
:100F000038F510E21D0FCD17B9F080E28C0F883054
:100F100040F4C77081E001C0880FCA95EAF70E94CB
:100F20000C0C183028F581E09D2F977001C0880FB8
:100F30009A95EAF70E94050C802F0E94F20B183058
:100F4000F0F4D77081E001C0880FDA95EAF70AC0A3
:100F500080E28C0F883098F4C77081E001C0880F60
:100F6000CA95EAF7DF91CF911F910F910C940C0C69
:100F7000802FDF91CF911F910F910C94F20BDF9195
:100F8000CF911F910F9108950F939C01CB01243FA6
:100F90004CE5340731F188F4293DFCE53F07D9F0F1
:100FA0002A3D4CE5340779F1283D3C45A9F506E298
:100FB00021EE41EE68ED7CE52BC0263FFCE53F07C6
:100FC000E1F0A8F0273F3C4539F507E225EE46EE73
:100FD00067EF7CE51DC007E225EE45EE69ED7CE597
:100FE00017C006E221EE40EE64EF7CE511C007E297
:100FF00025EE44EE65EF7CE50BC006E221EE42EE05
:1010000066EF7CE505C008E221E045EE6AED7CE58F
:101010000E94510780E008C0FC018281882319F0FA
:101020001092ED0001C081E00F910895CF93DF93FE
:10103000EC01FB018281882309F41FC1C230FCE569
:10104000DF0708F41BC1C6319CE5D90738F09E01C3
:101050002B5F3C452930310508F010C10E941C155A
:1010600090936A0280936902C031ECE5DE0709F4CF
:10107000C3C008F041C0C8308CE5D80709F49AC055
:10108000F0F4C430ECE5DE0709F487C068F4C23040
:101090008CE5D80709F477C0C330DC4509F0E3C01C
:1010A00080916902826076C0C630ECE5DE0709F403
:1010B0006EC008F07BC08091690288606BC0CC3044
:1010C0008CE5D80709F485C068F4CA30ECE5DE0782
:1010D00009F474C008F079C00E94860E80916902FC
:1010E000806858C0CE308CE5D80709F476C008F087
:1010F0007FC0809169028BC0CC3FECE5DE0709F42C
:101100004FC018F5C3318CE5D80709F47DC078F4D9
:10111000C131ECE5DE0709F473C0C231DC4509F0EA
:10112000A2C00E94860E809169028F7733C0C531BC
:101130008CE5D80709F472C008F486C0CB3FDC45C3
:1011400009F091C080916A023EC0C115FDE5DF073C
:1011500009F45FC058F4CE3F9CE5D90709F444C0B8
:1011600008F43FC080916A0282602DC0C230FDE564
:10117000DF0709F475C008F45DC0C330DD4509F030
:1011800072C080E06EC080916902816003C080916E
:10119000690280618093690266C08091690211C012
:1011A00080916A02826080936A025DC080916902C8
:1011B0008062F0CF809169028064ECCF80916902F7
:1011C00088608460E7CF8160EECF809169028E7F76
:1011D000E1CF809169028D7FDDCF80916902877FA9
:1011E000D9CF80916A0218C080916A028D7FDBCFCF
:1011F000809169028F7ECECF809169028F7DCACFA8
:10120000809169028F7BC6CF80916902877F8B7F37
:10121000C1CF80916A028D7F8E7FC5CF8091690298
:1012200082FB222720F991E0922790FB82F990FB24
:1012300083F9B0CF80916A02982F909591708E7F3C
:10124000892B90FB81F9AFCF0E94860E80916902B5
:1012500087FB222720F991E0922790FB87F99ACF0C
:1012600081E00E94B2158091690290916A020E9409
:101270002D150E94860E80E001C081E0DF91CF91A4
:101280000895CF93DF9386319C4541F5EB010E9491
:101290005214982F8A812091600030916100882338
:1012A00079F09A7A81E009F480E08093EE00911160
:1012B00002C069E201C065E3C9010E94F9150AC0D4
:1012C0008091EE00811102C069E201C065E3C901AD
:1012D0000E94FB150E94A01480E001C081E0DF9114
:1012E000CF9108959093F4008093F3000895E091D6
:1012F000F300F091F400309721F00190F081E02D9F
:10130000099480E00895E091F300F091F4003097A3
:1013100021F00280F381E02D099408952091F100DD
:101320003091F2002817390771F09093F200809302
:10133000F100E091F300F091F400309721F0068085
:10134000F781E02D099408952091EF003091F0008D
:101350002817390771F09093F0008093EF00E09127
:10136000F300F091F400309721F00084F185E02D36
:101370000994089584B7806884BF84B7806884BF67
:10138000089581E008950C94C10908950C94C5094D
:101390000C94C5090C94C8090C94C5090C94CC098B
:1013A0000C94C5090E94BA090E94D0090C94CE0978
:1013B0000E9420160E9430060E9491160C94CA09C1
:1013C0002F923F924F925F926F927F928F929F9255
:1013D000AF92BF92CF92DF92EF92FF920F931F9343
:1013E000CF93DF93CDB7DEB72B970FB6F894DEBF60
:1013F0000FBECDBF0E94C6090E94C5090E945C06AF
:101400000E94C309811111C08FEF89838A831B82D7
:101410000E9427168160782F9D838C8349815A8191
:101420006B818D810E94BD0A6BC046EF242E40E087
:10143000342E00E010E00B87802F0E94FF054B0147
:101440005C01F10141905190619071901F0146261D
:10145000572668267926411451046104710431F439
:101460000F5F1F4F0630110531F7CECF8091A201DB
:1014700081FD0E940B0680E0C12CD12C7601C39423
:10148000B301A2014C215D216E217F21452B462B0A
:10149000472B71F18E83FB85FF838C209D20AE202E
:1014A000BF2081E089288A288B2809F480E088877A
:1014B0000E9427168160782F9A8789874E815F81E5
:1014C00068858A850E94BD0A000F111F000F111F39
:1014D000F801EA50FF4F80819181A281B381C82633
:1014E000D926EA26FB26C082D182E282F38208C096
:1014F0008F5FCC0CDD1CEE1CFF1C823109F6B0CFD7
:101500000E9477099091F5008917F1F00E94770900
:101510008093F5002B960FB6F894DEBF0FBECDBFBB
:10152000DF91CF911F910F91FF90EF90DF90CF90BF
:10153000BF90AF909F908F907F906F905F904F90F3
:101540003F902F900C94EE032B960FB6F894DEBFCD
:101550000FBECDBFDF91CF911F910F91FF90EF9004
:10156000DF90CF90BF90AF909F908F907F906F90C3
:101570005F904F903F902F900895CF93DF93CDB71A
:10158000DEB72B970FB6F894DEBF0FBECDBF4F83EB
:10159000588769877A878B87DE01119686E0FD017F
:1015A00011928A95E9F785E0FE01379601900D9238
:1015B0008A95E1F749815A816B817C818D819E8179
:1015C0000E943F112B960FB6F894DEBF0FBECDBF21
:1015D000DF91CF910895FC01808191810E941314C5
:1015E0000895CF93882309F49CC0C82F8238C1F492
:1015F0000E94770981FD95C069E380916000909118
:1016000061000E94F9150E94A0142FEF81EE94E072
:10161000215080409040E1F700C0000069E319C00C
:10162000833801F50E94770980FD7BC063E58091D6
:101630006000909161000E94F9150E94A0142FEFA4
:1016400081EE94E0215080409040E1F700C000001E
:1016500063E580916000909161000E94FB15CF913D
:101660000C94A0148438C1F40E94770982FD59C0FB
:1016700067E480916000909161000E94F9150E94DA
:10168000A0142FEF81EE94E0215080409040E1F7CC
:1016900000C0000067E4DDCF8CEF8C0F813AD0F4FE
:1016A0006C2F80916000909161000E94C315882387
:1016B00049F06C2F80916000909161000E94FB15B1
:1016C0000E94A0146C2F80916000909161000E9494
:1016D000F915C5CF80E28C0F883048F4C77081E0DF
:1016E00001C0880FCA95EAF70E945514B8CFEBE500
:1016F000EC0FE33040F4F0E0EB51FF4F808190E0DD
:10170000CF910C948E09C85AC73158F4EC2FF0E0F1
:10171000EE0FFF1FE954FF4F80819181CF910C9410
:10172000A409CF910895882309F45BC0682F8238FB
:1017300079F40E94770981FF54C069E380916000C9
:10174000909161000E94F9150E94A01469E310C0F5
:101750008338B1F40E94770980FF43C063E580912C
:101760006000909161000E94F9150E94A01463E549
:1017700080916000909161000E94FB150C94A01470
:10178000843879F40E94770982FF2BC067E4809146
:101790006000909161000E94F9150E94A01467E416
:1017A000E7CF8CEF860F813A18F380E2860F8830FE
:1017B00048F4677081E001C0880F6A95EAF70E94DB
:1017C0005B14DCCF8BE5860F833020F480E090E063
:1017D0000C948E09685A673120F480E090E00C94F4
:1017E000A4090895CF93C82F0E94F10AC93349F480
:1017F0002FEF87EE93E0215080409040E1F700C04A
:1018000000008C2FCF910C94930B882321F00E9421
:1018100055140C94A0140895882321F00E945B14A1
:101820000C94A0140895CF92DF92EF92FF920F9341
:101830001F93CF93DF937C01062FC72FFC011581E7
:1018400012951F70D281D1110E9472140E944B1404
:10185000882399F0DD2389F08C2F807F803421F05C
:1018600080E2800F883048F082E00E94EA140E94F3
:101870004B1491E0D82ED92601C0D12CCC2EC29485
:101880008FE0C8228C2D90E0FC01E65DFF4F0C94A8
:10189000A6198C2F807FCF70882311F0C295C07F4E
:1018A000DD2399F0CC2309F482C180E2800F8830D7
:1018B00010F0011104C08C2F0E94551403C08C2F0E
:1018C0000E9465140E94A01472C1802F0E94930B85
:1018D000CC2309F491C180E2800F883010F001110F
:1018E00004C08C2F0E945B1403C08C2F0E946B14C9
:1018F0000E94A01481C18C2F807FCF70803211F0A4
:10190000C295C07F002319F00130C9F022C0DD2349
:1019100071F0112341F0113031F40E9485148C2BA9
:101920000E948D1469C10E9485148C2B1DC0112347
:1019300019F0113009F460C10E94961425C0DD230E
:1019400021F0163008F058C10EC0153008F054C10F
:101950001BC0DD2361F0112331F0F701858180FF89
:1019600026C18F7085838C2F0E94050C45C11123E1
:1019700059F0093309F02CC1FFEF27EE83E0F15055
:1019800020408040E1F722C18C2F0E940C0C34C112
:101990008C2F86958695837019F0813061F02CC16B
:1019A000DD2321F0802F9C2F937002C080E090E017
:1019B0000E948E0929C1DD2321F0802F9C2F937076
:1019C00002C080E090E00E94A4091EC18C2F8370A9
:1019D00009F045C0D11114C1402F4295469547707A
:1019E000440F440F602F6F70862F90E0A0E0B0E0AE
:1019F000042E04C0880F991FAA1FBB1F0A94D2F798
:101A000004FF10C00FE010E020E030E004C0000F41
:101A1000111F221F331F4A95D2F70095109520956C
:101A2000309503C000E010E09801C695C695C370DC
:101A3000BC01CD01602B712B822B932BC23049F05E
:101A400058F4C13019F00E949012DAC00E947E1240
:101A5000D7C00E94A212D4C00E947C12D1C0DD2344
:101A600019F08C2F817001C08695882309F4C8C0B5
:101A7000402F429546954770440F440F602F6F707A
:101A8000862F90E0A0E0B0E0042E04C0880F991FDC
:101A9000AA1FBB1F0A94D2F704FF10C00FE010E08A
:101AA00020E030E004C0000F111F221F331F4A95B1
:101AB000D2F7009510952095309503C000E010E016
:101AC0009801C695C695C370BC01CD01602B712BE2
:101AD000822B932BC23049F058F4C13019F00E9488
:101AE00055138EC00E9443138BC00E94671388C099
:101AF0000E94B61285C0CF70DD2339F08C2F0E9472
:101B0000DC12802F0E94050C7BC0802F0E940C0CE1
:101B10008C2F0E94FD1274C0023F01F128F4003F97
:101B200041F0013FA1F03FC0033FF9F0043F39F11C
:101B30003AC0DD2341F0153008F05EC08C2F8F7164
:101B40000E94221359C0163008F056C0F7CFDD238B
:101B500039F08C2F8F710E94DC124EC0DD23C9F347
:101B60008C2F8F710E94FD1247C0DD2329F08C2F2E
:101B70008F710E94C71240C00E94C2123DC0DD2377
:101B800049F0CF718C2F0E94DC1263E08C2F0E94F1
:101B9000D51432C081E00E94EA14123068F182E06C
:101BA0000E94EA1429C0DD2331F0112391F2802F25
:101BB0000E94F10A21C0112399F2093349F49FEFE1
:101BC000E7EEF3E09150E040F040E1F700C00000A4
:101BD000802F0E94930B10C04C2F4F70602FC701B5
:101BE0000E94F7030E94ED110FC04C2F4F70602F21
:101BF000C7010E94FA0308C088EF8C0D843020F4DE
:101C00000E9477090E94EE03DD20C9F00E9447146C
:101C100080FD15C0F70112820E9441140E94DC125F
:101C2000C7010E94400E0E944114DF91CF911F9185
:101C30000F91FF90EF90DF90CF900C94FD12DF9109
:101C4000CF911F910F91FF90EF90DF90CF9008956B
:101C50000F931F93CF93DF93EC01688179818A8181
:101C60000E941E148C010E9479130E946A12B8010E
:101C7000CE010E94130CDF91CF911F910F91089517
:101C8000CF93DF93EC01988189812B813C81232BB9
:101C900031F08F3F31F481E09F3F19F403C081E0C0
:101CA00001C080E080FD19C0CE010E94AA0381110D
:101CB0000CC00E944B14882381F08A81882369F02C
:101CC00082E0DF91CF910C94EA14CE010E94280E9D
:101CD000CE01DF91CF910C948303DF91CF910895D2
:101CE0000E9472140E9482140E94A01480E090E06E
:101CF0000E948E0980E090E00C94A409809160001D
:101D0000909161000E94FD150C94700E0E94621467
:101D10000C947E0EE92FE295EF704E2F50E0FA0101
:101D20003297EE30F105B0F4E65CFF4F0C94A61943
:101D3000803F91F018F4883E68F40EC0843F51F45F
:101D40000BC0883E48F0813F29F406C093FB8827EA
:101D500080F9089580E0089581E008950E941314A9
:101D60000E948A0E0895CF93DF9300D000D01F9277
:101D7000CDB7DEB70F900F900F900F900F90DF91BF
:101D8000CF910895CF93DF9300D000D000D0CDB78E
:101D9000DEB726960FB6F894DEBF0FBECDBFDF913B
:101DA000CF9108951F93CF93DF93C0910F0116E059
:101DB00080911001C81799F0D0E01C9FF0011D9F81
:101DC000F00D1124EF5EFE4F4081518162817381DD
:101DD000848195810E94C20E2196C770E9CFDF9160
:101DE000CF911F910895409141015091420160911E
:101DF00043017091440180914501909146010C94FA
:101E0000C20E0F931F93CF93DF938091460182956B
:101E10008F7009F05DC080914301882309F458C098
:101E200080910F0110911001609141017091420168
:101E3000C0914401D091450191E06F3F09F090E0DD
:101E4000292F06E0811709F443C0209721F07F3F36
:101E500021F030E003C031E001C0322F90E030FDCE
:101E600034C0089FF001099FF00D1124DF01AF5E1F
:101E7000BE4F11963C911197371327C03C913613F2
:101E800024C012963C91129731111FC013964D91A8
:101E90005C9114974C1B5D0B483C5105B0F480914C
:101EA00046018F70806180934601EA5EFE4F80811B
:101EB0008F708061808381E491E00E94400EDF9109
:101EC000CF911F910F910C94D20E01968770BACFCB
:101ED000DF91CF911F910F9108959F92AF92BF9282
:101EE000CF92DF92EF92FF920F931F93CF93DF93E6
:101EF000CDB7DEB761970FB6F894DEBF0FBECDBF8A
:101F00008C0185E0F801DE011D9601900D928A9505
:101F1000E1F7F80140815181E280909141016091A7
:101F2000420120914401309145012115310531F0E4
:101F30006F3F31F481E09F3F19F403C081E001C09D
:101F400080E0F82FF1709F2E80FD46C1F801A3803C
:101F5000B48081E4C82E81E0D82EF0904301F501D1
:101F6000E21BF30BFF2009F4DFC080914601E83C3F
:101F7000F10508F09BC0282F207F09F052C05613AE
:101F800013C0491311C0FE2CE1100EC08F70806188
:101F9000809346010E94F30EC6010E94400E80917C
:101FA0004601F801858358C1AB2831F05F3F31F419
:101FB00081E04F3F19F403C081E001C080E080FD63
:101FC00003C081E08E2502C080E090E0F82FF17020
:101FD000FF2E80FF1CC080910F012091100136E080
:101FE000821709F417C190E0389FF001399FF00D76
:101FF0001124EF5EFE4F6181561306C060814613C7
:1020000003C06281E61203C001968770E9CFFE2CFF
:10201000EE2009F421C18091460181608093460140
:102020005AC0561306C0491304C0E11002C0F8019B
:102030009FC04D875E878D859E850E94AE0E88234A
:1020400079F1EE2069F120914601822F82958F70FF
:1020500090E0029774F0809141019091420198873D
:102060008F831986BB86AA862C87CE0107960E948D
:10207000400E86E0F801A1E4B1E001900D928A954E
:10208000E1F70E94010F0E94F30E0DC0561729F1CF
:102090004D875E878D859E850E94AE0E81112CC076
:1020A000C8010E94400EFF24F394D6C0282F207F41
:1020B00069F77A2DB98AA88A6E2D89890E94B30E94
:1020C00081E491E00E94400E86E0F60111928A952B
:1020D000E9F70E94F30EF12CBFC04913D9CFE110EC
:1020E000D7CFF8018583C8010E94400E86E0F60133
:1020F00011928A95E9F7B0C0EE2091F22091460145
:10210000822F82958F7090E002970CF4B2CF80916D
:102110004101909142019A8389831B82BD82AC82E6
:102120002E83CE010196A3CFE83CF10508F047C00D
:10213000FE2CEE2009F4B4CF561330C049132EC044
:102140002091460120FD21C0822F82958F70482F5B
:1021500050E041155105C9F0F80125834F30510574
:1021600041F08F5F982F9295907F822F8F70892BEF
:102170008583C8010E94400E86E0F801A1E4B1E029
:1021800001900D928A95E1F742C086E0F801A1E442
:10219000B1E001900D928A95E1F75EC04D875E87B0
:1021A0008D859E850E94AE0E811163CF8091460180
:1021B000816080934601C8010E94400E4DC07A2D77
:1021C000B98AA88A6E2D89890E94B30E86E0F6012D
:1021D00011928A95E9F71BC0EE2009F461CF4D8773
:1021E0005E878D859E850E94AE0EF82E882309F4A9
:1021F00057CF86E0F801A1E4B1E001900D928A95F5
:10220000E1F781E491E00E94EB0A0E94010F0E9435
:10221000F30E22C04D875E878D859E850E94131424
:10222000292F22952F70223028F49F7039F08111C8
:1022300005C00BC0243028F49F7049F4805E8830BC
:1022400020F0C8010E94400E9F2CF92C05C0F80117
:102250009581907F99F7F9CF8F2D61960FB6F894FD
:10226000DEBF0FBECDBFDF91CF911F910F91FF90C9
:10227000EF90DF90CF90BF90AF909F9008951F9305
:10228000CF93DF93CDB7DEB72C970FB6F894DEBFB0
:102290000FBECDBF4F83588769877A878B879C870E
:1022A000CE0107960E946D0F8823D1F09F8188850B
:1022B0002A853B85232B31F08F3F31F481E09F3F0E
:1022C00019F403C081E001C080E080FD47C04F8168
:1022D000588569857A858B859C850E94C20E3EC093
:1022E00086E0FE013796DE01119601900D928A95E7
:1022F000E1F7FF81E8856A857B856115710531F01D
:10230000EF3F31F481E0FF3F19F403C081E001C0E9
:1023100080E080FD23C02091100130E0C9010196CA
:102320008770992740910F0150E084179507F1F1CC
:10233000F983EA837D836C8396E0929FD001939F1B
:10234000B00D1124AF5EBE4FFE01319601900D928B
:102350009A95E1F7809310010E94D20E16E08091C9
:102360000F0190911001891771F1189FC00111247C
:102370008F5E9E4F0E946D0F882329F1E0910F011F
:102380001E9FF0011124EF5EFE4F4081518162815A
:102390007381848195810E94C20E80910F0190E02B
:1023A00001968770992780930F01D9CF0E94860EDE
:1023B0001092100110920F01E1E4F1E086E0DF01DC
:1023C0001D928A95E9F72C960FB6F894DEBF0FBEE2
:1023D000CDBFDF91CF911F910895EF92FF920F93A0
:1023E0001F93CF93DF938C01892B09F46CC0F12CE0
:1023F000EE24E394E8012196F8018491843740F4B7
:10240000843008F051C0813081F0823019F15BC016
:10241000853709F444C0A8F19CE7980F903708F07D
:1024200052C08F770E94930B41C00E5F1F4FFE0179
:10243000849190E2980F983050F48770FE2D01C07F
:10244000FF0F8A95EAF78F2F0E94751414C00E941F
:10245000F10A2DC00E5F1F4FFE01849190E2980F8C
:10246000983060F48770FE2D01C0FF0F8A95EAF75F
:102470008F2F0E947B140E94A01419C00E94930BFE
:1024800016C00E5F1F4FFE01C491CC2381F08FE96F
:102490009FE00197F1F700C00000C150F6CF0E5F3A
:1024A0001F4FFE01F49003C00E94F10A8E018F2D90
:1024B000882309F49FCFEFE9FFE03197F1F700C0DF
:1024C00000008150F5CFDF91CF911F910F91FF90C8
:1024D000EF900895089508950C946B120C946C126B
:1024E0000E946E1260939101709392018093930108
:1024F000909394010C94700E0C9470120F931F9390
:1025000000919101109192012091930130919401D9
:10251000602B712B822B932B1F910F910C947012B7
:102520000F931F93009191011091920120919301BB
:102530003091940160237123822393231F910F9183
:102540000C9470120F931F930091910110919201BE
:10255000209193013091940160277127822793275E
:102560001F910F910C9470120C946B120E94B41274
:1025700060938D0170938E0180938F0190939001F1
:102580000C94700E60E070E0CB010C94B6120F93C7
:102590001F9341E050E060E070E08A019B0104C0BD
:1025A000000F111F221F331F8A95D2F7C901B801EE
:1025B0001F910F910C94B6120F931F9341E050E0BE
:1025C00060E070E004C0440F551F661F771F8A95B6
:1025D000D2F780918D0190918E01A0918F01B091E1
:1025E00090018A019B01082B192B2A2B3B2BC90137
:1025F000B8011F910F910C94B6120F931F9341E0F5
:1026000050E060E070E004C0440F551F661F771F64
:102610008A95D2F7409550956095709580918D017F
:1026200090918E01A0918F01B09190018A019B0140
:10263000082319232A233B23C901B8011F910F91B5
:102640000C94B6120F931F9341E050E060E070E0ED
:1026500004C0440F551F661F771F8A95D2F78091DB
:102660008D0190918E01A0918F01B09190018A010E
:102670009B01082719272A273B27C901B8011F9169
:102680000F910C94B6120F931F9300918D0110912E
:102690008E0120918F0130919001602B712B822B44
:1026A000932B1F910F910C94B6120F931F930091CF
:1026B0008D0110918E0120918F0130919001602346
:1026C0007123822393231F910F910C94B6120F93C1
:1026D0001F9300918D0110918E0120918F013091F7
:1026E000900160277127822793271F910F910C94E7
:1026F000B612089522E1929F800D1124E82FE695ED
:10270000E695E695877051E001C0550F8A95EAF786
:1027100085E0E89FF0011124E95BFE4F20E030E006
:1027200070E04081CB01022E02C0969587950A94F5
:10273000E2F78170819584278523842781932F5F19
:102740003F4F2530310569F7089522E1929F800DB2
:102750001124682F669566956695982F977085E089
:10276000689FB001112440E050E080E0FB01E40FDD
:10277000F51FE95BFE4F208130E0092E02C036953F
:1027800027950A94E2F721703327042E01C0220F07
:102790000A94EAF7822B4F5F5F4F4530510531F7BE
:1027A0000895BF92CF92DF92EF92FF920F931F9303
:1027B000CF93DF938C01C0908D01D0908E01E0907B
:1027C0008F01F09090018091910190919201A091E0
:1027D0009301B0919401C82AD92AEA2AFB2ACFE1B1
:1027E000D0E0D701C6010C2E04C0B695A7959795E9
:1027F00087950A94D2F780FD04C0219790F7B12CF9
:1028000007C0BC2EB8018C2F0E9416040197A9F3B3
:102810008B2DDF91CF911F910F91FF90EF90DF9063
:10282000CF90BF900895CF93DF93EC010E94D11316
:10283000BE010E941604DF91CF9108951F93CF939C
:10284000DF93EB0190910E01992321F0CB010E94BF
:10285000131413C0882349F0CB010E94D113182F01
:10286000682FCE010E947A1304C0CB010E94A513E9
:10287000182FBE01812F0E941604DF91CF911F9166
:102880000895809195018595859585950895809108
:1028900095018770089590919501977081E009F4F2
:1028A00080E008958091A10108959091A101892B64
:1028B0008093A101089580959091A101892380932F
:1028C000A10108951092A10108959091A001892B72
:1028D0008093A001089580959091A0018923809311
:1028E000A00108951092A001089590919F01892B55
:1028F00080939F010895809590919F0189238093F3
:102900009F01089510929F01089580919601089566
:1029100008950C9488140C9489149091960198173A
:1029200021F0809396010C948B1408958091960168
:10293000882329F01092960180E00C948B1408955E
:10294000E0916000F09161008091A1018083E091AD
:102950006000F091610090818091A001892B8083BB
:10296000E0916000F0916100908180919F01892B3E
:10297000808380919601882381F0E0916000F0913E
:1029800061009081892B808380916000909161002B
:102990000E94B71581110E94961480916000909159
:1029A00061000C9483090C94881498E0899F90012D
:1029B0001124262B209395010E94DC128091950111
:1029C0008595859585950C94D3141092950180E09A
:1029D0000C94D314209195018095822380939501C6
:1029E000982F977079F430E0482F082E000C550B83
:1029F0002417350739F08595859585950E94FD1238
:102A00000C94E51408956FEF7FEF80E090E00C9454
:102A1000D71980E090E00E94B41921E08C3E9E4FCF
:102A200009F020E0822F089582E090E00C94AC1928
:102A300083E090E00C94AC19CF9384E090E00E9486
:102A4000AC19C82F81E290E00E94AC192C2F30E025
:102A5000A901582BCA01CF910895CF93C92F682F90
:102A600084E090E00E94BA196C2F81E290E0CF914F
:102A70000C94BA19AB01BC018FE090E00C94CB1917
:102A8000AB01BC0183E190E00C94CB1960E070E0F5
:102A9000CB010C94401560E070E0CB010E943A1528
:102AA0000C9446156CEE7EEF80E090E00E94D71902
:102AB00060E082E090E00E94BA1960E083E090E07C
:102AC0000E94BA19109291011092920110929301F2
:102AD0001092940160E084E090E00E94BA1960E0F6
:102AE00081E290E00E94BA1960E085E090E00E94E7
:102AF000BA1960E086E090E00E94BA196FEF87E0B3
:102B000090E00E94BA1940E050E0BA0188E090E0FD
:102B10000E94CB1960E08DE090E00E94BA1940E07D
:102B200050E0BA0188E190E00E94CB1960E087E1B3
:102B300090E00E94BA1940E050E0BA018CE190E0C8
:102B40000E94CB1960E080E290E00E94BA1940E058
:102B500050E0BA0188E190E00E94CB190C944B152B
:102B60000C945215682F8EE090E00C94BA19FC0179
:102B7000329697E080E0915029F021912223D9F3F9
:102B80008F5FF9CF0895662349F0FC0132960896CD
:102B90002191621729F0E817F907D1F780E008952D
:102BA00081E008959C01FC0132969FEF80E0419105
:102BB000461789F09F3F19F4411101C0982F8F5F8C
:102BC0008630A9F79F3F39F0F901E90FF11D97FD14
:102BD000FA956283089508959C012A5F3F4FFC0196
:102BE0004281461301C01282019682179307B9F7FA
:102BF00008950C94D2150C94EC15029626E0FC0175
:102C000011922A95E9F7089508950C9404160C94EE
:102C10000416CF930E9407160E945C060E940516B8
:102C2000C0E08C2F0E94FF05672B682B692B29F4CD
:102C3000CF5FC630B1F780E001C081E0CF91089549
:102C40008BE083BF8AEF8CBF82E089BF08952FB7E6
:102C5000F8948091650290916602A0916702B0910C
:102C600068022FBF08959C014FB7F89480916502C8
:102C700090916602A0916702B09168024FBF821BDB
:102C8000930B089578941F920F920FB60F92112410
:102C90008F939F93AF93BF9380916502909166024B
:102CA000A0916702B09168020196A11DB11D8093A9
:102CB000650290936602A0936702B0936802BF9189
:102CC000AF919F918F910F900FBE0F901F9018950D
:102CD00098E088E10FB6F894A89581BD0FBE91BD2C
:102CE000A895F894D8E0CEE528E3299320E029932D
:102CF00014BEFFCF08950C9403150E945C068FE369
:102D00009CE90197F1F700C000000E945C0680E09A
:102D10000E94FF0560FF04C00E947B160C94681699
:102D200008950E940915811102C00E94B0150E94E9
:102D300014158093A2010E941C1590936A0280933F
:102D400069020E941815682F70E080E090E00E94F0
:102D50007C1260918D0170918E0180918F01909114
:102D600090010C94B4120F931F93CF93DF930E94A2
:102D700027168C010E94D2090E948B198B9A80E041
:102D8000815041F0A895EFE9FFE03197F1F700C0DD
:102D90000000F6CF8B9878940E94D8090E94AE1755
:102DA0000E947209FFEF20E732E0F15020403040EE
:102DB000E1F700C00000C0E0DCE0809192028823CF
:102DC00031F0109292020E9427168C0107C0C801B0
:102DD0000E9433160697A8F4C11113C00E949418DC
:102DE00080919802882329F08091760284FD0E94C8
:102DF000E0090E9455170E94C6090E94C509C0E05B
:102E0000DCCF0E940916811102C0C1E0D6CFF89430
:102E100091B3939A892F8C6081BB82B38D2782BB3B
:102E20008FE7E8E3F1E08150E040F040E1F700C0D7
:102E3000000082B38D2782BB91BB93987894E5CF35
:102E40008091340208950895CF93DF9300D01F92AC
:102E5000CDB7DEB79091A501981307C02091A301CB
:102E60003091A4012617370791F08093A501709344
:102E7000A4016093A30189837B836A838091AF025D
:102E800084FF05C063E0CE0101960E9490180F9068
:102E90000F900F90DF91CF910895BC0184E00C94C6
:102EA0002417BC0183E00C942417CF93DF93CAE06E
:102EB000D0E08091760284FF18C08091B10190919A
:102EC000B2019817E1F028E0829FC001112468E068
:102ED0008D549E4F0E948C188091B10190E0019614
:102EE0008F7099278093B1010AC00E9494188FE9CE
:102EF0009FE00197F1F700C000002197D1F6DF9124
:102F0000CF910895CF93DF93EC01A091B201B0E08F
:102F1000CD0101968F7099272091B101281779F082
:102F200093E0AA0FBB1F9A95E1F7AD54BE4F98E00E
:102F3000FE0101900D929A95E1F78093B2010E94F3
:102F400094180E94551788E0FE01A9EAB1E00190AB
:102F50000D928A95E1F7DF91CF91089582E690E096
:102F60000895FC01808180768032A1F581818130D5
:102F700061F484819581892B69F589EA91E09093C8
:102F800094028093930288E00895823041F483E3B1
:102F900092E0909394028093930281E008958A30A6
:102FA00021F483818093330215C0893099F48281A2
:102FB00093818115924081F484819581892B61F4FC
:102FC00081E08093A801868197819093A7018093E7
:102FD000A60102C080E008958FEF08952091A60118
:102FE0003091A701232B71F02091A801213051F4D9
:102FF000FC018081809334021092A7011092A601F7
:1030000081E008958FEF08950895FC019381933036
:10301000D9F068F4913081F0923009F059C080E421
:1030200092E090939402809393028BE308959132FF
:1030300049F19232B9F14CC08BE792E0909394023F
:103040008093930282E108958281813099F050F05B
:103050008230F1F58DE892E0909394028093930290
:1030600084E1089585EC92E090939402809393021A
:1030700084E0089583EA92E090939402809393020F
:1030800080E208958281882329F0813009F58BE65A
:1030900092E002C082E592E09093940280939302C2
:1030A00089E0089584819581009751F0019781F41A
:1030B00089EC92E0909394028093930282E30895C6
:1030C0008BEF92E0909394028093930280E40895B2
:1030D00080E008951F93CF93DF93162FEA01288194
:1030E00024FF05C0398128E82327298302C02AE567
:1030F0002883212FFC01CE010296DC0131913D9302
:1031000021501216DCF3612F0E94F9011C5F188315
:10311000DF91CF911F91089546E752E00C946A1811
:103120004FEA52E00C946A18CF93DF9360919502B6
:10313000635067FD93C080919102CCE0D0E0C81B42
:10314000D109C756DD4F80919002803120F4CE0125
:103150000E94041881C08D3209F06EC0683009F0F9
:103160007BC083EC80936B028AE580936D001092A4
:103170008F028881807621F0CE010E94B11749C06C
:103180009A81109274028981811106C01092750291
:1031900024E732E082E038C0853019F4909396023B
:1031A00030C08630A1F48B81813041F0823031F023
:1031B000833021F0813211F0823221F4CE010E945D
:1031C000051801C080E090E490938F0222C08830FF
:1031D00089F0893019F49093980213C08A3069F00D
:1031E0008B3079F48BE4809377028093B0028093E4
:1031F000830207C028E932E002C024E732E081E020
:1032000003C024E732E080E03093940220939302DD
:1032100009C08F3F39F4988197FD8E8190E8909393
:103220008F0207C09F81911104C09E81981708F4F6
:10323000892F80936C0010C080918F0287FF0CC093
:10324000CE010E94EE178F3F21F48EE180936D0036
:1032500003C0811110926C001092950280916D0054
:1032600084FF4CC080916C008F3F09F447C0C82F89
:10327000893008F0C8E08C1B80936C0090916B0241
:1032800088E8892780936B02CC2359F180919302BF
:103290009091940220918F0226FF12C0ABE6B2E01B
:1032A0002C2FAC014B565240FA01EA0FFB1FE49160
:1032B0001196EC931197215011962111F5CF08C06A
:1032C000ECE6F2E0DC012C2F3D9131932150E1F747
:1032D00001962FEF2C0F820F911D909394028093F3
:1032E00093026C2F8CE692E00E94F901CC5FCC3007
:1032F00019F08FEF80936C00C0936D0084E190B360
:103300009C7031F48150D9F71092960210928E027F
:10331000DF91CF910895CF93DF9385B7886085BF04
:103320008BB780688BBFC6E7D2E08BE48983AFEAB6
:10333000B2E011968C931197E2E8F2E081838AE57E
:1033400088838C938083DF91CF910895EE0FFF1FC8
:103350000590F491E02D0994E199FECF9FBB8EBBBF
:10336000E09A99278DB30895A8E1B0E042E050E0DB
:103370000C94DF19262FE199FECF9FBB8EBBE09AFC
:1033800001970DB2021631F02DBB0FB6F894E29AF8
:10339000E19A0FBE08950396272F0E94BB190E9441
:1033A000BA19252F0E94BB19242F0C94BB19019622
:1033B000272F0E94BB190C94BA19DC01CB01FC0128
:1033C000E199FECF06C0FFBBEEBBE09A31960DB28D
:0E33D0000D9241505040B8F70895F894FFCF89
:1033DE00970120178217231751174D17FF5AE20036
:1033EE00E900EA00B500B600B700CD008301CC00BD
:1033FE008A0192019401210223022402250226024F
:10340E0027022A02B300B4006F00700081828390FD
:10341E00609161926293639464959697060501009C
:10342E0007323337343635E200E900EA00B500B62C
:10343E0000B700CD008301CC008A019201940121D6
:10344E0002230224022502260227022A02B300B416
:08345E00006F00700081828301
:00000001FF
